S0150000747261666669635F6C696768742E73726563B9
S11300000C942A000C943F000C943F000C943F0085
S11300100C943F000C943F000C943F000C943F0060
S11300200C943F000C943F000C943F000C943F0050
S11300300C943F000C943F000C943F000C943F0040
S11300400C943F000C943F000C943F000C943F0030
S11300500C943F0011241FBECFE5D4E0DEBFCDBF1A
S113006010E0A0E6B0E0EAEFF1E002C005900D92E6
S1130070AA36B107D9F70E94B1000C94FB000C9486
S11300800000CF93DF93CDB7DEB72A970FB6F8946D
S1130090DEBF0FBECDBF8FEF87BB8ABB8AE0E0E631
S11300A0F0E0DE01119601900D928A95E1F7DE01F0
S11300B0139622E039E017C09C919BBB929198BBA8
S11300C04FE35DE093E0415050409040E1F700C0C1
S11300D00000211102C0853051F0815068F7215091
S11300E011972F3F21F0FE013B96832FE5CF2A96EF
S11300F00FB6F894DEBF0FBECDBFDF91CF91089548
S1130100CF93DF93CDB7DEB72A970FB6F894DEBF4F
S11301100FBECDBF8FEF87BB8ABB8AE0E0E6F0E07D
S1130120DE01119601900D928A95E1F7FE01369653
S1130130CE010296229128BB2FE33DE043E02150FB
S113014030404040E1F700C00000E817F90791F79C
S11301502A960FB6F894DEBF0FBECDBFDF91CF91C4
S113016008958FEF81BB84BB87BB8ABB0F2EF6E556
S11301708F2EF02D0F2EF0E59F2EF02D0F2EF3E095
S1130180AF2EF02D0F2EF9E5BF2EF02D0F2EF1E43A
S1130190CF2EF02D0F2EF6E0DF2EF02D0F2EF5E6EC
S11301A0EF2EF02D0F2EF5E0FF2EF02D0CE015E9CB
S11301B0D4E1C9E085BA12BA0E94410095BAA2BA44
S11301C00E948000B5BA12BA0E944100C5BAD2BAE0
S11301D00E948000E5BA12BA0E944100F5BA02BB3F
S11301E00E94800015BB12BA0E944100D5BBC2BB5D
S10D01F00E948000DFCFF894FFCFD7
S10D01FAFC60DAF266B6BEE0FEF621
S9030000FC
